:020000040000FA
:1000000060020020D5000000EF000000390500006C
:1000100000000000000000000000000000000000E0
:10002000000000000000000000000000F3000000DD
:100030000000000000000000F50000006106000064
:10004000230600002B060000330600003B060000DC
:10005000F9000000F9000000A1070000A907000056
:10006000F9000000F900000043060000F90000005C
:1000700075050000F9000000510700005907000055
:1000800061070000F9000000710700007907000017
:100090008107000013060000C5080000F9000000F9
:1000A00061010000F9000000B5080000BD08000073
:1000B0000B060000F9000000A50400000D0400007C
:1000C0000348854600F03AF800480047A1090000BF
:1000D0006002002009480A4A002100A1814200D99B
:1000E0000244084802600848804708480047FEE785
:1000F000FEE7FEE7FEE7FEE7FEE700000000002067
:100100000000000008ED00E049070000C100000009
:1001100030B50B46014600202022012409E00D469F
:10012000D5409D4205D31D469540491B2546954027
:1001300040191546521E002DF1DC30BD064C01253C
:10014000064E05E0E36807CC2B430C3C984710347F
:10015000B442F7D3FFF7B8FFDC090000FC09000048
:1001600080B5C046C04680BD70B52A4C05212046EA
:1001700000F03BFA194E02E0204600F0EDF920466F
:1001800000F0F0F90028FAD0204600F0F0F905461A
:1001900000F000FB082D02D0582D08D10BE00521FE
:1001A000204600F0D1F97121204600F025FA307880
:1001B0000128E1D10BE0204600F014FA054600F0DA
:1001C000E9FA0421204600F010FA01203070FF20E7
:1001D00000F0E0FA00203070E8B270BD5800002056
:1001E0001FB56C461021204600F0AAFB0420012117
:1001F00000F09AFA00F08CFA5521A1810090044891
:100200000190402002900348214600F0B7F91FBD3D
:10021000A086010000040040F0B585B06C461421B2
:10022000204600F08DFB1C200125294600F07CFAB9
:100230000020009004950295039080260625304604
:100240002946224600F03EF9052730463946224627
:1002500000F038F9304629462A4600F065F9304664
:1002600039462A4600F060F905B0F0BDF0B585B01A
:100270006C461421204600F063FB1C200125294612
:1002800000F052FA00200090C0260527304639467B
:10029000224600F017F9304639462A4600F044F964
:1002A0000095062730463946224600F00BF93046C5
:1002B00039462A4600F038F905B0F0BD7CB500F0AB
:1002C00005FB012401940A4D01A9284600F0B0FA6B
:1002D00000262846314600F09CFA2846314600F0B8
:1002E00089FA07202146224600F098F87CBDC046D6
:1002F0000001004002460120022A0AD0012A0FD044
:10030000002A14D10A480268154B13400B430360BE
:100310000CE00748026C124B13400B43036405E0EA
:100320000348026A0E4B13400B43036200207047E0
:10033000000C004002460120084B002A06D0022A89
:1003400003D0012A08D1203300E040331868044A62
:1003500002400A431A6000207047C046040C004067
:100360000000FFFFB0B502460120274B002A06D04F
:10037000022A03D0012A34D1203300E04033012087
:1003800042020C68640214401D68954325431D60B9
:1003900000024A68120202401C68844314431C6035
:1003A00088680001702210401C68944304431C605C
:1003B000C868C000082210401C68944304431C60B5
:1003C00008698000042210401C68944304431C60A8
:1003D00048694000022108401A688A4302431A60B3
:1003E0000020B0BD01460120074A002906D002299D
:1003F00003D0012907D1203200E0403210680121EA
:1004000001431160002070470C0C004080B5C046CD
:10041000C04680BD80B5C046C04680BDB0B500288E
:100420000BDB1F23034001249C401B4B1C60032358
:1004300004469C43194BE31806E00F230340083B96
:100440000324A343134C1B19C4001825254089011C
:10045000C9B2A940FF24AC401D68A5430D431D60EF
:10046000012A08D1002813DB1F2108400121814007
:100470000B480160B0BD00280ADB1F2108400121A4
:1004800081408020064A1150BFF34F8FBFF36F8F1A
:10049000B0BDC0461CED00E080E200E000E400E0FA
:1004A00000E100E080B5C046C046C046C04680BD01
:1004B0000246012003468B4011681940002900D1F3
:1004C00008467047FEB501920C4606461448371898
:1004D00038460C3000252A460295124B9847A0005A
:1004E000301814494550019D2A78384621460D4E52
:1004F000B04738461C302A792146B047384620306C
:100500002A7A2146B047384624302A7B2146B04714
:100510002C372A7C38462146B047029803B0F0BDFC
:10052000000D02404B06000089004018014942506E
:1005300000207047000C024081B00020009000981D
:100540000028FCD001B0704710B5083000242246C6
:1005500000F07BF8204610BD81680822914381603D
:10056000002070478068C10801200840704740693A
:10057000C0B2704780B5C046C04680BDB0B5044625
:100580001748026810239A43026002681A43026007
:100590000022A2608868A0600B68486805010120FD
:1005A000AB421CD38868402810D10120206003C9C9
:1005B000FFF7AEFDC008401EC5B2082D03D80021CC
:1005C000204600F012F865600020B0BD2260487B34
:1005D0000A7B520002430A73D0B220610120B0BDF1
:1005E00028200040C068C0B2704780B508300122A2
:1005F00000F02BF8002080BDC1600020704780B55E
:10060000FFF70AFEFFF7ECFD80BD80B5C046C0468F
:1006100080BD80B5C046C04680BD80B5C046C046DE
:1006200080BD80B5C046C04680BD80B5C046C046CE
:1006300080BD80B5C046C04680BD80B5C046C046BE
:1006400080BD80B5C046C04680BD01238B40012AD5
:1006500002D10168194301E00168994301607047C4
:1006600080B5C046C04680BDF0B520490C884B8897
:100670008A88C8880D8C2B490E68370903263E40AE
:10068000022E0AD0012E13D0002E13D1CE681A4D9F
:100690002E40A64215D119480DE04869154B03407C
:1006A0004B2040020122D203AB4204D0104602E0AC
:1006B0000F4800E000200968890907220A40D0405D
:1006C000F0BDCC682C409C4201D10D48F3E7CB68CB
:1006D0002B40934201D10B48EDE7CA682A40824281
:1006E00001D00A48E7E70848E5E7C046000C1000DB
:1006F0000048E801FF030000FF07000000366E011C
:10070000408651010024F40000127A0000093D00E7
:1007100080B5FFF7A9FF03490968490A03220A4087
:10072000D04080BD0020004080B50A460146024806
:10073000FFF78BFF002080BD2020004080B5FFF731
:1007400093FF9649086080BD80B5FFF7F7FF80BD35
:1007500080B5C046C04680BD80B5C046C04680BD9D
:1007600080B5C046C04680BD80B5C046C04680BD8D
:1007700080B5C046C04680BD80B5C046C04680BD7D
:1007800080B5C046C04680BD80B5FFF76FFDFFF75E
:1007900095FD80BD80B50146684800F05BF880BDDE
:1007A00080B500F005F880BD80B5C046C04680BD6C
:1007B000B0B5012084070021204600F034F801285C
:1007C00011D10021204600F015F8204600F040F835
:1007D000074D69684A1C6A6069180872204600F073
:1007E0001FF8002800D0B0BD01202870B0BDC04661
:1007F0001000002010B5143000242246FFF725FF1A
:10080000204610BD80B5001D0122FFF71EFF00200D
:1008100080BD80B5001D0122FFF717FF002080BDBD
:100820000069C0B2704780B51030FFF741FE80BD4F
:1008300080B509888288054B13408901C9B21943E4
:1008400081800421FFF7DEFF002080BD3FFF000014
:1008500000787047B0B50446017005461035012197
:100860002846FFF725FE0028F9D001212046FFF792
:10087000C1FF0020B0BD000010B50A7983880C4C80
:100880001C40012313405A0222438280086802223E
:1008900002430020032A08D18A680879401C50438B
:1008A000C9684901FFF734FC404280B210BDC04620
:1008B000FFFD000080B5C046C04680BD80B5C04683
:1008C000C04680BD80B5C046C04680BDF0B58BB087
:1008D00007AE1021304600F033F801AD182128464C
:1008E00000F02EF8082001242146FFF71DFF2046C6
:1008F0002146FFF719FF002737714B20C0010A90EE
:1009000003200790FFF704FF09900C483146FFF7DA
:10091000B3FF06460694059720462946FFF722FDB9
:1009200020463146FFF7E6FC20463146FFF702FD40
:100930002046FFF757FD0BB0F0BDC0460001004058
:10094000002804D105E000220270401C491E002945
:10095000F9D17047F8B50F4C0F4961600026A660C9
:10096000052121600D4F0CE0A6607D20C100386894
:10097000FFF7CEFB0849491C081AA1688142FCD840
:100980002846451E0028EFD12068012188432060B9
:10099000F8BDC04610E000E0FFFFFF0000000020AF
:1009A00080B5FFF72CFEFFF7EFFE7D20C000FFF7BC
:1009B000D1FFFFF7D9FB1420FFF7CCFFFEE702E0E1
:1009C00008C8121F08C1002AFAD1704770470020DA
:1009D00001E001C1121F002AFBD17047000A00008C
:1009E0000000002010000000BE090000100A0000F6
:1009F0001000002050020000CE090000000000009E
:100A000000093D00000000000000000000000000A0
:04000005000000C136
:00000001FF
